{
  "transactions": [
    {
      "hash": "0xc286099bc6528516357223c70de075e7d3f90991baf8162f683e46c8bee7f51d",
      "transactionType": "CALL",
      "contractName": "LinkToken",
      "contractAddress": "0x779877A7B0D9E8603169DdbD7836e478b4624789",
      "function": "transferAndCall(address,uint256,bytes):(bool)",
      "arguments": [
        "0x8103B0A8A00be2DDC778e6e7eaa21791Cd364625",
        "3000000000000000000",
        "0x00000000000000000000000000000000000000000000000000000000000020bf"
      ],
      "transaction": {
        "type": "0x02",
        "from": "0x9e73ab2e4e0a856f78ee74565ea2748ed37dde66",
        "to": "0x779877a7b0d9e8603169ddbd7836e478b4624789",
        "gas": "0x13fbe",
        "value": "0x0",
        "data": "0x4000aea00000000000000000000000008103b0a8a00be2ddc778e6e7eaa21791cd36462500000000000000000000000000000000000000000000000029a2241af62c00000000000000000000000000000000000000000000000000000000000000000060000000000000000000000000000000000000000000000000000000000000002000000000000000000000000000000000000000000000000000000000000020bf",
        "nonce": "0x30",
        "accessList": []
      },
      "additionalContracts": [],
      "isFixedGasLimit": false
    }
  ],
  "receipts": [],
  "libraries": [],
  "pending": [
    "0xc286099bc6528516357223c70de075e7d3f90991baf8162f683e46c8bee7f51d"
  ],
  "returns": {},
  "timestamp": 1704725311,
  "chain": 11155111,
  "multi": false,
  "commit": "7be29ac"
}