{
  "transactions": [
    {
      "hash": "0xf21a7da677cb2e0596d50f45fa7aba5a8cdc14eaab0813026f72db4a62cec91c",
      "transactionType": "CALL",
      "contractName": "LinkToken",
      "contractAddress": "0x779877A7B0D9E8603169DdbD7836e478b4624789",
      "function": "transferAndCall(address,uint256,bytes):(bool)",
      "arguments": [
        "0x8103B0A8A00be2DDC778e6e7eaa21791Cd364625",
        "3",
        "0x00000000000000000000000000000000000000000000000000000000000020bf"
      ],
      "transaction": {
        "type": "0x02",
        "from": "0x9e73ab2e4e0a856f78ee74565ea2748ed37dde66",
        "to": "0x779877a7b0d9e8603169ddbd7836e478b4624789",
        "gas": "0x19baf",
        "value": "0x0",
        "data": "0x4000aea00000000000000000000000008103b0a8a00be2ddc778e6e7eaa21791cd36462500000000000000000000000000000000000000000000000000000000000000030000000000000000000000000000000000000000000000000000000000000060000000000000000000000000000000000000000000000000000000000000002000000000000000000000000000000000000000000000000000000000000020bf",
        "nonce": "0x2f",
        "accessList": []
      },
      "additionalContracts": [],
      "isFixedGasLimit": false
    }
  ],
  "receipts": [
    {
      "transactionHash": "0xf21a7da677cb2e0596d50f45fa7aba5a8cdc14eaab0813026f72db4a62cec91c",
      "transactionIndex": "0x24",
      "blockHash": "0x9b6bb72d5c43cba41da51e00537466bee829f941361c99dc08a5c20cd7d02b5f",
      "blockNumber": "0x4d0395",
      "from": "0x9E73aB2e4E0a856F78Ee74565Ea2748eD37DDe66",
      "to": "0x779877A7B0D9E8603169DdbD7836e478b4624789",
      "cumulativeGasUsed": "0x3631e4",
      "gasUsed": "0x12a0e",
      "contractAddress": null,
      "logs": [
        {
          "address": "0x779877A7B0D9E8603169DdbD7836e478b4624789",
          "topics": [
            "0xddf252ad1be2c89b69c2b068fc378daa952ba7f163c4a11628f55a4df523b3ef",
            "0x0000000000000000000000009e73ab2e4e0a856f78ee74565ea2748ed37dde66",
            "0x0000000000000000000000008103b0a8a00be2ddc778e6e7eaa21791cd364625"
          ],
          "data": "0x0000000000000000000000000000000000000000000000000000000000000003",
          "blockHash": "0x9b6bb72d5c43cba41da51e00537466bee829f941361c99dc08a5c20cd7d02b5f",
          "blockNumber": "0x4d0395",
          "transactionHash": "0xf21a7da677cb2e0596d50f45fa7aba5a8cdc14eaab0813026f72db4a62cec91c",
          "transactionIndex": "0x24",
          "logIndex": "0x3a",
          "removed": false
        },
        {
          "address": "0x779877A7B0D9E8603169DdbD7836e478b4624789",
          "topics": [
            "0xe19260aff97b920c7df27010903aeb9c8d2be5d310a2c67824cf3f15396e4c16",
            "0x0000000000000000000000009e73ab2e4e0a856f78ee74565ea2748ed37dde66",
            "0x0000000000000000000000008103b0a8a00be2ddc778e6e7eaa21791cd364625"
          ],
          "data": "0x00000000000000000000000000000000000000000000000000000000000000030000000000000000000000000000000000000000000000000000000000000040000000000000000000000000000000000000000000000000000000000000002000000000000000000000000000000000000000000000000000000000000020bf",
          "blockHash": "0x9b6bb72d5c43cba41da51e00537466bee829f941361c99dc08a5c20cd7d02b5f",
          "blockNumber": "0x4d0395",
          "transactionHash": "0xf21a7da677cb2e0596d50f45fa7aba5a8cdc14eaab0813026f72db4a62cec91c",
          "transactionIndex": "0x24",
          "logIndex": "0x3b",
          "removed": false
        },
        {
          "address": "0x8103B0A8A00be2DDC778e6e7eaa21791Cd364625",
          "topics": [
            "0xd39ec07f4e209f627a4c427971473820dc129761ba28de8906bd56f57101d4f8",
            "0x00000000000000000000000000000000000000000000000000000000000020bf"
          ],
          "data": "0x00000000000000000000000000000000000000000000000000000000000000000000000000000000000000000000000000000000000000000000000000000003",
          "blockHash": "0x9b6bb72d5c43cba41da51e00537466bee829f941361c99dc08a5c20cd7d02b5f",
          "blockNumber": "0x4d0395",
          "transactionHash": "0xf21a7da677cb2e0596d50f45fa7aba5a8cdc14eaab0813026f72db4a62cec91c",
          "transactionIndex": "0x24",
          "logIndex": "0x3c",
          "removed": false
        }
      ],
      "status": "0x1",
      "logsBloom": "0x0000001400000000000000000000000000100000000000020000000002000000000000000000800000000000000000000000000000000800000000000000000000000000000000000000000800000000000000080000000000002000000000010000000000000000000000000000000000000400400000000000001000000000000000000c000020000000000000800010000020000000000000000000000000000400000000000000000000000000000000000000000000000400000000000000000002000000000000000000000000000000000000000100000000000000000000000000000000000000000000000000000000000000000000000000000000",
      "type": "0x2",
      "effectiveGasPrice": "0x5922b7d35"
    }
  ],
  "libraries": [],
  "pending": [],
  "returns": {},
  "timestamp": 1704725112,
  "chain": 11155111,
  "multi": false,
  "commit": "7be29ac"
}